{
  "_format": "hh-sol-artifact-1",
  "contractName": "PrecropMarket",
  "sourceName": "contracts/PrecropMarket.sol",
  "abi": [
    {
      "inputs": [
        {
          "internalType": "address",
          "name": "_nftContract",
          "type": "address"
        },
        {
          "internalType": "address",
          "name": "_usdc",
          "type": "address"
        },
        {
          "internalType": "address",
          "name": "_feeRecipient",
          "type": "address"
        }
      ],
      "stateMutability": "nonpayable",
      "type": "constructor"
    },
    {
      "inputs": [
        {
          "internalType": "address",
          "name": "owner",
          "type": "address"
        }
      ],
      "name": "OwnableInvalidOwner",
      "type": "error"
    },
    {
      "inputs": [
        {
          "internalType": "address",
          "name": "account",
          "type": "address"
        }
      ],
      "name": "OwnableUnauthorizedAccount",
      "type": "error"
    },
    {
      "inputs": [],
      "name": "ReentrancyGuardReentrantCall",
      "type": "error"
    },
    {
      "anonymous": false,
      "inputs": [
        {
          "indexed": true,
          "internalType": "uint256",
          "name": "tokenId",
          "type": "uint256"
        },
        {
          "indexed": true,
          "internalType": "address",
          "name": "farmer",
          "type": "address"
        },
        {
          "indexed": false,
          "internalType": "string",
          "name": "metadataURI",
          "type": "string"
        },
        {
          "indexed": false,
          "internalType": "uint256",
          "name": "priceUsdc",
          "type": "uint256"
        }
      ],
      "name": "ContractMinted",
      "type": "event"
    },
    {
      "anonymous": false,
      "inputs": [
        {
          "indexed": true,
          "internalType": "uint256",
          "name": "tokenId",
          "type": "uint256"
        },
        {
          "indexed": true,
          "internalType": "address",
          "name": "buyer",
          "type": "address"
        },
        {
          "indexed": false,
          "internalType": "uint256",
          "name": "priceUsdc",
          "type": "uint256"
        }
      ],
      "name": "ContractPurchased",
      "type": "event"
    },
    {
      "anonymous": false,
      "inputs": [
        {
          "indexed": true,
          "internalType": "uint256",
          "name": "tokenId",
          "type": "uint256"
        },
        {
          "indexed": true,
          "internalType": "address",
          "name": "buyer",
          "type": "address"
        }
      ],
      "name": "ContractRedeemed",
      "type": "event"
    },
    {
      "anonymous": false,
      "inputs": [
        {
          "indexed": true,
          "internalType": "uint256",
          "name": "tokenId",
          "type": "uint256"
        }
      ],
      "name": "ListingCancelled",
      "type": "event"
    },
    {
      "anonymous": false,
      "inputs": [
        {
          "indexed": true,
          "internalType": "address",
          "name": "previousOwner",
          "type": "address"
        },
        {
          "indexed": true,
          "internalType": "address",
          "name": "newOwner",
          "type": "address"
        }
      ],
      "name": "OwnershipTransferred",
      "type": "event"
    },
    {
      "anonymous": false,
      "inputs": [
        {
          "indexed": false,
          "internalType": "uint256",
          "name": "newFeeBps",
          "type": "uint256"
        }
      ],
      "name": "PlatformFeeUpdated",
      "type": "event"
    },
    {
      "inputs": [],
      "name": "FARMER_ROYALTY_BPS",
      "outputs": [
        {
          "internalType": "uint96",
          "name": "",
          "type": "uint96"
        }
      ],
      "stateMutability": "view",
      "type": "function"
    },
    {
      "inputs": [
        {
          "internalType": "uint256",
          "name": "tokenId",
          "type": "uint256"
        }
      ],
      "name": "buy",
      "outputs": [],
      "stateMutability": "nonpayable",
      "type": "function"
    },
    {
      "inputs": [
        {
          "internalType": "uint256",
          "name": "tokenId",
          "type": "uint256"
        }
      ],
      "name": "cancelListing",
      "outputs": [],
      "stateMutability": "nonpayable",
      "type": "function"
    },
    {
      "inputs": [],
      "name": "feeRecipient",
      "outputs": [
        {
          "internalType": "address",
          "name": "",
          "type": "address"
        }
      ],
      "stateMutability": "view",
      "type": "function"
    },
    {
      "inputs": [
        {
          "internalType": "uint256",
          "name": "",
          "type": "uint256"
        }
      ],
      "name": "listings",
      "outputs": [
        {
          "internalType": "address",
          "name": "farmer",
          "type": "address"
        },
        {
          "internalType": "uint256",
          "name": "priceUsdc",
          "type": "uint256"
        },
        {
          "internalType": "bool",
          "name": "active",
          "type": "bool"
        }
      ],
      "stateMutability": "view",
      "type": "function"
    },
    {
      "inputs": [
        {
          "internalType": "string",
          "name": "metadataURI",
          "type": "string"
        },
        {
          "internalType": "uint256",
          "name": "priceUsdc",
          "type": "uint256"
        }
      ],
      "name": "mintAndList",
      "outputs": [
        {
          "internalType": "uint256",
          "name": "tokenId",
          "type": "uint256"
        }
      ],
      "stateMutability": "nonpayable",
      "type": "function"
    },
    {
      "inputs": [],
      "name": "nftContract",
      "outputs": [
        {
          "internalType": "contract PrecropNFT",
          "name": "",
          "type": "address"
        }
      ],
      "stateMutability": "view",
      "type": "function"
    },
    {
      "inputs": [],
      "name": "owner",
      "outputs": [
        {
          "internalType": "address",
          "name": "",
          "type": "address"
        }
      ],
      "stateMutability": "view",
      "type": "function"
    },
    {
      "inputs": [],
      "name": "platformFeeBps",
      "outputs": [
        {
          "internalType": "uint256",
          "name": "",
          "type": "uint256"
        }
      ],
      "stateMutability": "view",
      "type": "function"
    },
    {
      "inputs": [
        {
          "internalType": "uint256",
          "name": "tokenId",
          "type": "uint256"
        }
      ],
      "name": "redeem",
      "outputs": [],
      "stateMutability": "nonpayable",
      "type": "function"
    },
    {
      "inputs": [],
      "name": "renounceOwnership",
      "outputs": [],
      "stateMutability": "nonpayable",
      "type": "function"
    },
    {
      "inputs": [
        {
          "internalType": "address",
          "name": "_feeRecipient",
          "type": "address"
        }
      ],
      "name": "setFeeRecipient",
      "outputs": [],
      "stateMutability": "nonpayable",
      "type": "function"
    },
    {
      "inputs": [
        {
          "internalType": "uint256",
          "name": "_feeBps",
          "type": "uint256"
        }
      ],
      "name": "setPlatformFee",
      "outputs": [],
      "stateMutability": "nonpayable",
      "type": "function"
    },
    {
      "inputs": [
        {
          "internalType": "address",
          "name": "newOwner",
          "type": "address"
        }
      ],
      "name": "transferOwnership",
      "outputs": [],
      "stateMutability": "nonpayable",
      "type": "function"
    },
    {
      "inputs": [],
      "name": "usdc",
      "outputs": [
        {
          "internalType": "contract IERC20",
          "name": "",
          "type": "address"
        }
      ],
      "stateMutability": "view",
      "type": "function"
    }
  ],
  "bytecode": "0x60c060405260fa600155348015610014575f80fd5b506040516110273803806110278339810160408190526100339161011e565b60017f9b779b17422d0df92223018b32b4d1fa46e071723d6817e2486d003becc55f0055338061007c57604051631e4fbdf760e01b81525f600482015260240160405180910390fd5b610085816100b4565b506001600160a01b0392831660805290821660a052600280546001600160a01b0319169190921617905561015e565b5f80546001600160a01b038381166001600160a01b0319831681178455604051919092169283917f8be0079c531659141344cd1fd0a4f28419497f9722a3daafe3b4186f6b6457e09190a35050565b80516001600160a01b0381168114610119575f80fd5b919050565b5f805f60608486031215610130575f80fd5b61013984610103565b925061014760208501610103565b915061015560408501610103565b90509250925092565b60805160a051610e7e6101a95f395f818161013d015281816106cb01526107c601525f81816101e0015281816104b8015281816108b5015281816109890152610a5e0152610e7e5ff3fe608060405234801561000f575f80fd5b50600436106100f0575f3560e01c80638da5cb5b11610093578063db006a7511610063578063db006a7514610215578063de74e57b14610228578063e74b981b1461028a578063f2fde38b1461029d575f80fd5b80638da5cb5b146101b8578063d3d1b2e1146101c8578063d56d229d146101db578063d96a094a14610202575f80fd5b80633e413bee116100ce5780633e413bee14610138578063469048401461017757806366c36d071461018a578063715018a6146101b0575f80fd5b806312e8e2c3146100f457806322dcd13e14610109578063305a67a814610125575b5f80fd5b610107610102366004610c28565b6102b0565b005b61011260015481565b6040519081526020015b60405180910390f35b610107610133366004610c28565b61034a565b61015f7f000000000000000000000000000000000000000000000000000000000000000081565b6040516001600160a01b03909116815260200161011c565b60025461015f906001600160a01b031681565b6101936101f481565b6040516bffffffffffffffffffffffff909116815260200161011c565b61010761043e565b5f546001600160a01b031661015f565b6101126101d6366004610c3f565b610451565b61015f7f000000000000000000000000000000000000000000000000000000000000000081565b610107610210366004610c28565b6105e0565b610107610223366004610c28565b610961565b610263610236366004610c28565b60036020525f90815260409020805460018201546002909201546001600160a01b03909116919060ff1683565b604080516001600160a01b039094168452602084019290925215159082015260600161011c565b610107610298366004610cc4565b610aff565b6101076102ab366004610cc4565b610b29565b6102b8610b63565b6103e881111561030f5760405162461bcd60e51b815260206004820152601b60248201527f50726563726f704d61726b65743a2066656520746f6f2068696768000000000060448201526064015b60405180910390fd5b60018190556040518181527f45610d581145924dd7090a5017e5f2b1d6f42213bb2e95707ff86846bbfcb1ca9060200160405180910390a150565b5f81815260036020526040902080546001600160a01b031633146103b05760405162461bcd60e51b815260206004820152601960248201527f50726563726f704d61726b65743a206e6f74206661726d6572000000000000006044820152606401610306565b600281015460ff166104045760405162461bcd60e51b815260206004820152601960248201527f50726563726f704d61726b65743a206e6f7420616374697665000000000000006044820152606401610306565b60028101805460ff1916905560405182907f411aee90354c51b1b04cd563fcab2617142a9d50da19232d888547c8a1b7fd8a905f90a25050565b610446610b63565b61044f5f610b8f565b565b5f8082116104a15760405162461bcd60e51b815260206004820181905260248201527f50726563726f704d61726b65743a207072696365206d757374206265203e20306044820152606401610306565b604051630f62f6f560e31b81526001600160a01b037f00000000000000000000000000000000000000000000000000000000000000001690637b17b7a8906104f5903390889088906101f490600401610d0e565b6020604051808303815f875af1158015610511573d5f803e3d5ffd5b505050506040513d601f19601f820116820180604052508101906105359190610d51565b6040805160608101825233808252602080830187815260018486018181525f888152600390945292869020945185546001600160a01b0319166001600160a01b03909116178555905190840155516002909201805460ff19169215159290921790915590519192509082907fc9dfc24d41e6b579d91f91a6e410715cfdba777845a6b173f9497848677a9a61906105d190889088908890610d68565b60405180910390a39392505050565b6105e8610bde565b5f818152600360205260409020600281015460ff166106535760405162461bcd60e51b815260206004820152602160248201527f50726563726f704d61726b65743a206c697374696e67206e6f742061637469766044820152606560f81b6064820152608401610306565b6001808201548254915490916001600160a01b0316905f90612710906106799085610d9f565b6106839190610dbc565b90505f6106908285610ddb565b60028601805460ff191690556040516323b872dd60e01b81523360048201526001600160a01b038581166024830152604482018390529192507f0000000000000000000000000000000000000000000000000000000000000000909116906323b872dd906064016020604051808303815f875af1158015610713573d5f803e3d5ffd5b505050506040513d601f19601f820116820180604052508101906107379190610dee565b6107915760405162461bcd60e51b815260206004820152602560248201527f50726563726f704d61726b65743a206661726d6572207472616e736665722066604482015264185a5b195960da1b6064820152608401610306565b8115610889576002546040516323b872dd60e01b81523360048201526001600160a01b039182166024820152604481018490527f0000000000000000000000000000000000000000000000000000000000000000909116906323b872dd906064016020604051808303815f875af115801561080e573d5f803e3d5ffd5b505050506040513d601f19601f820116820180604052508101906108329190610dee565b6108895760405162461bcd60e51b815260206004820152602260248201527f50726563726f704d61726b65743a20666565207472616e73666572206661696c604482015261195960f21b6064820152608401610306565b6040516323b872dd60e01b81526001600160a01b038481166004830152336024830152604482018890527f000000000000000000000000000000000000000000000000000000000000000016906323b872dd906064015f604051808303815f87803b1580156108f6575f80fd5b505af1158015610908573d5f803e3d5ffd5b50506040518681523392508891507f80a9896026a2d8ff28f492d85b4d1b18750effe104acf3fd1a2931761ebd34ac9060200160405180910390a3505050505061095e60015f80516020610e2983398151915255565b50565b610969610bde565b6040516331a9108f60e11b81526004810182905233906001600160a01b037f00000000000000000000000000000000000000000000000000000000000000001690636352211e90602401602060405180830381865afa1580156109ce573d5f803e3d5ffd5b505050506040513d601f19601f820116820180604052508101906109f29190610e0d565b6001600160a01b031614610a485760405162461bcd60e51b815260206004820152601c60248201527f50726563726f704d61726b65743a206e6f74204e4654206f776e6572000000006044820152606401610306565b60405163db006a7560e01b8152600481018290527f00000000000000000000000000000000000000000000000000000000000000006001600160a01b03169063db006a75906024015f604051808303815f87803b158015610aa7575f80fd5b505af1158015610ab9573d5f803e3d5ffd5b50506040513392508391507f10e4706de8fadc0d5e20e154876f870ebbd64a316871a87956d59623379daf14905f90a361095e60015f80516020610e2983398151915255565b610b07610b63565b600280546001600160a01b0319166001600160a01b0392909216919091179055565b610b31610b63565b6001600160a01b038116610b5a57604051631e4fbdf760e01b81525f6004820152602401610306565b61095e81610b8f565b5f546001600160a01b0316331461044f5760405163118cdaa760e01b8152336004820152602401610306565b5f80546001600160a01b038381166001600160a01b0319831681178455604051919092169283917f8be0079c531659141344cd1fd0a4f28419497f9722a3daafe3b4186f6b6457e09190a35050565b610be6610bf9565b60025f80516020610e2983398151915255565b5f80516020610e298339815191525460020361044f57604051633ee5aeb560e01b815260040160405180910390fd5b5f60208284031215610c38575f80fd5b5035919050565b5f805f60408486031215610c51575f80fd5b833567ffffffffffffffff80821115610c68575f80fd5b818601915086601f830112610c7b575f80fd5b813581811115610c89575f80fd5b876020828501011115610c9a575f80fd5b6020928301989097509590910135949350505050565b6001600160a01b038116811461095e575f80fd5b5f60208284031215610cd4575f80fd5b8135610cdf81610cb0565b9392505050565b81835281816020850137505f828201602090810191909152601f909101601f19169091010190565b6001600160a01b03851681526060602082018190525f90610d329083018587610ce6565b90506bffffffffffffffffffffffff8316604083015295945050505050565b5f60208284031215610d61575f80fd5b5051919050565b604081525f610d7b604083018587610ce6565b9050826020830152949350505050565b634e487b7160e01b5f52601160045260245ffd5b8082028115828204841417610db657610db6610d8b565b92915050565b5f82610dd657634e487b7160e01b5f52601260045260245ffd5b500490565b81810381811115610db657610db6610d8b565b5f60208284031215610dfe575f80fd5b81518015158114610cdf575f80fd5b5f60208284031215610e1d575f80fd5b8151610cdf81610cb056fe9b779b17422d0df92223018b32b4d1fa46e071723d6817e2486d003becc55f00a2646970667358221220ae0ca8ef577a35b580bd001231b009a7f24ba8d5f8c039ac3e4b2510da1a99b864736f6c63430008180033",
  "linkReferences": {},
  "deployedLinkReferences": {}
}